S0150000566F74696E675F53797374656D2E73726563B4
S11300000C942A000C9447000C9447000C9447006D
S11300100C9447000C9447000C9447000C94470040
S11300200C9447000C9447000C9447000C94470030
S11300300C9447000C9447000C9447000C94470020
S11300400C9447000C9447000C9447000C94470010
S11300500C94470011241FBECFE5D4E0DEBFCDBF12
S113006010E0A0E6B0E0E6EEF4E102C005900D92E7
S1130070A43FB107D9F721E0A4EFB0E001C01D927D
S1130080A830B207E1F70E948C070C94710A0C9413
S113009000000E9430060E94180540E060E082E003
S11300A00E943F0340E061E082E00E943F0340E0A1
S11300B062E082E00E943F0340E063E082E00E944D
S11300C03F0340E064E082E00E943F0340E065E0DB
S11300D082E00E943F030895DC0190E00DC0292FC7
S11300E030E0FD01E20FF31F4081FB01E20FF31F3B
S11300F02081421305C09F5F943088F381E0089506
S113010080E00895CF93DF93D0E021C00E94690579
S1130110C82F8F3FE1F00E94EE058FE19EE4019726
S1130120F1F700C0000064E06D0F82E00E947907DF
S11301308AE20E94EE05ED2FF0E0EC5FFE4FC083F3
S11301408FE99FE00197F1F700C00000DF5FD43032
S1130150E9F6DF91CF9108950E94260661E081E0DF
S11301600E94790784E790E00E94130663E081E02F
S11301700E94790760910001709101018091020150
S1130180909103010E9473080E946A066AE081E06C
S11301900E94790787E790E00E9413066CE081E0F3
S11301A00E9479076091FC007091FD008091FE002F
S11301B09091FF000E9473080E946A0661E082E049
S11301C00E9479078AE790E00E94130663E082E0C8
S11301D00E9479076091F8007091F9008091FA000B
S11301E09091FB000E9473080E946A066AE082E014
S11301F00E9479078DE790E00E9413066CE082E08C
S11302000E9479076091F4007091F5008091F600E6
S11302109091F7000E9473080E946A0608950E9454
S1130220490080E890E00E94130662E082E00E94A8
S113023079078CE890E00E9413062FEF81EE94E09A
S1130240215080409040E1F700C000000E94260643
S113025061E081E00E947907C3E00E9426068CE9F0
S113026090E00E94130664E082E00E9479070E94F5
S113027082000E94260664E071E080E690E00E941D
S11302806C00882309F4A2C160E081E00E94790730
S113029087EA90E00E9413062FEF80E792E0215056
S11302A080409040E1F700C000000E94AC00209123
S11302B0FC003091FD004091FE005091FF006091E0
S11302C000017091010180910201909103010E944B
S11302D090072091F8003091F9004091FA00509174
S11302E0FB000E9490072091F4003091F5004091AA
S11302F0F6005091F7000E9490070E94AA086B0133
S11303007C01EB0160E082E00E943C038130C9F48F
S113031020E030E040E85FE360910001709101016A
S113032080910201909103010E9490076093000163
S11303307093010180930201909303010E94AC0029
S1130340B6CF61E082E00E943C038130C9F420E032
S113035030E040E85FE36091FC007091FD00809123
S1130360FE009091FF000E9490076093FC00709340
S1130370FD008093FE009093FF000E94AC0097CF95
S113038062E082E00E943C038130C9F420E030E066
S113039040E85FE36091F8007091F9008091FA0001
S11303A09091FB000E9490076093F8007093F9000D
S11303B08093FA009093FB000E94AC0078CF63E036
S11303C082E00E943C038130C9F420E030E040E840
S11303D05FE36091F4007091F5008091F6009091D4
S11303E0F7000E9490076093F4007093F5008093E7
S11303F0F6009093F7000E94AC0059CF64E082E0CD
S11304000E943C03813029F51092000110920101F1
S113041010920201109203011092FC001092FD0050
S11304201092FE001092FF001092F8001092F90052
S11304301092FA001092FB001092F4001092F50052
S11304401092F6001092F7000E9426060E94AC005B
S11304502ECF65E082E00E943C03813009F027CF73
S1130460CD2B91F40E94260683EB90E00E941306A4
S11304702FEF80E792E0215080409040E1F700C0E8
S113048000000E94260613CF0E94260661E081E048
S11304900E94790784E790E00E94130663E081E0FC
S11304A00E947907B60180E090E00E94D9086B01B0
S11304B07C019B01AC01609100017091010180916C
S11304C00201909103010E94FC0720E030E048EC17
S11304D052E40E9477090E9473080E946A0681EC24
S11304E090E00E9413066AE081E00E94790787E7A2
S11304F090E00E9413066CE081E00E947907A70156
S113050096016091FC007091FD008091FE00909135
S1130510FF000E94FC0720E030E048EC52E40E9417
S113052077090E9473080E946A0681EC90E00E9499
S1130530130661E082E00E9479078AE790E00E9456
S1130540130663E082E00E947907A7019601609197
S1130550F8007091F9008091FA009091FB000E94DC
S1130560FC0720E030E048EC52E40E9477090E9446
S113057073080E946A0681EC90E00E9413066AE008
S113058082E00E9479078DE790E00E9413066CE0F8
S113059082E00E947907A70196016091F4007091AE
S11305A0F5008091F6009091F7000E94FC0720E08E
S11305B030E048EC52E40E9477090E9473080E94DC
S11305C06A0681EC90E00E94130671CEC15061E08E
S11305D081E00E94790783EC90E00E94130660E0BA
S11305E082E00E9479078DEC90E00E9413062C2F84
S11305F030E040E050E060E070E080E090E00E9495
S11306006A0687ED90E00E9413062FEF81EE94E0D6
S1130610215080409040E1F700C000000E9426066F
S1130620C1111BCE25C061E081E00E9479078EEDE7
S113063090E00E94130662E082E00E9479072C2F6A
S113064030E040E050E060E070E080E090E00E9444
S11306506A068BEE90E00E9413062FEF80E792E08B
S1130660215080409040E1F700C00000C15001C01B
S1130670C9E0C111D8CFF0CD0E94EA0408958430B6
S113068008F07BC0683008F07AC04130C1F5813091
S113069091F028F08230D9F0833029F172C02AB366
S11306A081E090E002C0880F991F6A95E2F7822BDF
S11306B08ABB81E0089527B381E090E002C0880FEF
S11306C0991F6A95E2F7822B87BB81E0089524B3D2
S11306D081E090E002C0880F991F6A95E2F7822BAF
S11306E084BB81E0089521B381E090E002C0880FCB
S11306F0991F6A95E2F7822B81BB81E0089541112D
S113070042C0813099F028F08230E9F0833041F121
S11307103CC02AB381E090E002C0880F991F6A951B
S1130720E2F7809582238ABB81E0089527B381E0B4
S113073090E002C0880F991F6A95E2F780958223A2
S113074087BB81E0089524B381E090E002C0880F64
S1130750991F6A95E2F78095822384BB81E008950E
S113076021B381E090E002C0880F991F6A95E2F7F7
S11307708095822381BB81E0089580E0089580E024
S1130780089581E0089580E0089581E0089584301B
S113079008F07BC0683008F07AC04130C1F5813080
S11307A091F028F08230D9F0833029F172C02BB354
S11307B081E090E002C0880F991F6A95E2F7822BCE
S11307C08BBB81E0089528B381E090E002C0880FDC
S11307D0991F6A95E2F7822B88BB81E0089525B3BF
S11307E081E090E002C0880F991F6A95E2F7822B9E
S11307F085BB81E0089522B381E090E002C0880FB8
S1130800991F6A95E2F7822B82BB81E0089541111A
S113081042C0813099F028F08230E9F0833041F110
S11308203CC02BB381E090E002C0880F991F6A9509
S1130830E2F7809582238BBB81E0089528B381E0A1
S113084090E002C0880F991F6A95E2F78095822391
S113085088BB81E0089525B381E090E002C0880F51
S1130860991F6A95E2F78095822385BB81E00895FC
S113087022B381E090E002C0880F991F6A95E2F7E5
S11308808095822382BB81E0089580E0089580E012
S1130890089581E0089580E0089581E0089584300A
S11308A0E8F56830E8F541155105E1F1813091F042
S11308B028F08230D9F0833029F136C089B390E032
S11308C002C0959587956A95E2F78170FA01808355
S11308D081E0089586B390E002C0959587956A9566
S11308E0E2F78170FA01808381E0089583B390E098
S11308F002C0959587956A95E2F78170FA01808325
S113090081E0089580B390E002C0959587956A953B
S1130910E2F78170FA01808381E0089580E0089510
S113092080E0089580E0089581E00895843080F5A2
S11309306130C1F4813051F028F0823059F08330B5
S113094069F028C08FEF8ABB81E008958FEF87BBE1
S113095081E008958FEF84BB81E008958FEF81BB20
S113096081E00895611118C0813049F028F0823087
S113097049F0833051F012C01ABA81E0089517BAD1
S113098081E0089514BA81E0089511BA81E00895D0
S113099080E0089581E0089580E0089581E008955D
S11309A08430A0F4813049F028F0823049F083305B
S11309B051F00EC06BBB81E0089568BB81E00895DF
S11309C065BB81E0089562BB81E0089580E00895ED
S11309D080E00895813079F028F08230A9F08330E6
S11309E0E1F024C089B390E002C0959587956A959B
S11309F0E2F78170089586B390E002C095958795DB
S1130A006A95E2F78170089583B390E002C09595EA
S1130A1087956A95E2F78170089580B390E002C0EB
S1130A20959587956A95E2F78170089580E0089519
S1130A3040E060E083E00E943F0340E061E083E047
S1130A400E943F0340E062E083E00E943F0340E0F5
S1130A5063E083E00E943F0341E060E083E00E94A2
S1130A60C70341E061E083E00E94C70341E062E024
S1130A7083E00E94C70341E063E083E00E94C70370
S1130A8041E064E083E00E943F0341E065E083E0ED
S1130A900E943F0341E066E083E00E943F0341E09F
S1130AA067E083E00E943F0341E064E083E00E944A
S1130AB0C70341E065E083E00E94C70341E066E0CC
S1130AC083E00E94C70341E067E083E00E94C7031C
S1130AD00895FF920F931F93CF93DF931F92CDB787
S1130AE0DEB704E0FF24FA9449C040E0602F83E0BD
S1130AF00E94C70310E037C0AE014F5F5F4F612F04
S1130B0083E00E944F04898181112CC08FE39CE90A
S1130B100197F1F700C00000AE014F5F5F4F612FF6
S1130B2083E00E944F04898181111CC0812F90E0D1
S1130B30202F30E024503109880F991F880F991F06
S1130B408C599F4FFC01E20FF31FF08007C0AE01E8
S1130B504F5F5F4F612F83E00E944F048981882398
S1130B60B1F303C01F5F143038F241E0602F83E01B
S1130B700E94C7039FEFF91204C00F5F083008F406
S1130B80B4CF8F2D0F90DF91CF911F910F91FF90D4
S1130B900895682F80E00E94D00440E060E081E086
S1130BA00E94C70340E061E081E00E94C70341E086
S1130BB062E081E00E94C7038FE99FE00197F1F7AB
S1130BC000C0000040E062E081E00E94C7038FE9BA
S1130BD09FE00197F1F700C000000895682F80E0BE
S1130BE00E94D00441E060E081E00E94C70340E03D
S1130BF061E081E00E94C70341E062E081E00E947D
S1130C00C7038FE99FE00197F1F700C0000040E0BF
S1130C1062E081E00E94C7038FE99FE00197F1F74A
S1130C2000C0000008950F931F93CF938C01C0E080
S1130C3003C00E94EE05CF5FF801EC0FF11D808127
S1130C408111F7CFCF911F910F91089581E00E94F8
S1130C50C9058FE39CE90197F1F700C000000895EE
S1130C602FEF80E792E0215080409040E1F700C0F0
S1130C70000061E080E00E94960441E060E081E0D1
S1130C800E943F0341E061E081E00E943F0341E0B4
S1130C9062E081E00E943F0388E30E94C9058FE976
S1130CA09FE00197F1F700C000008CE00E94C905A5
S1130CB08FE99FE00197F1F700C000000E9426062B
S1130CC086E00E94C9058FE99FE00197F1F700C013
S1130CD0000008952F923F924F925F926F927F92FD
S1130CE08F929F92AF92BF92CF92DF92EF92FF9238
S1130CF00F931F93CF93DF93CDB7DEB728970FB62B
S1130D00F894DEBF0FBECDBF29833A834B835C8347
S1130D106D837E83382E292EA0E00E94650A09F097
S1130D2081C080E30E94EE05CBC02F813885492D18
S1130D30582D672D762D852D942D01E00E94430AB0
S1130D40822E932E48875F83B62FA72FF82FE92F83
S1130D5002E00E94430AA22EB32EC42ED52EE62E04
S1130D60F72E082F192F282D392D48855F816B2FD9
S1130D707A2F8F2F9E2F0E945C0A28873F83942E00
S1130D80852E762E672E582E492E0F2EFAE0AF2E82
S1130D90F02DB12CC12CD12CE12CF12C00E010E071
S1130DA029813A814B815C816D817E81832D922DD5
S1130DB00E94E409A22EB32EC42ED52EE62EF72EC1
S1130DC0082F192F28853F81492D582D672D762D01
S1130DD0852D942D0E945C0A2F833887942E852EAE
S1130DE0762E672E582E492E0F2EFAE0AF2EF02DB8
S1130DF0B12CC12CD12CE12CF12C00E010E0298184
S1130E003A814B815C816D817E81832D922D0E947C
S1130E10E60929833A834B835C836D837E83382E72
S1130E20292E09C081E01886912C812C712C612C0B
S1130E30512C412C8F8329813A814B815C816D81B6
S1130E407E81832D922DA0E00E94650A09F06DCF6A
S1130E502BC00F2EFAE0AF2EF02DB12CC12CD12CCB
S1130E60E12CF12C00E010E02F813885492D582D1C
S1130E70672D762D852D942D0E94E40980E3820F41
S1130E800E94EE052F813885492D582D672D762D2A
S1130E90852D942D0E94E6092F833887942E852E64
S1130EA0762E672E582E492E2F813885492D582DA0
S1130EB0672D762D852D942DA1E00E94650A49F6B3
S1130EC028960FB6F894DEBF0FBECDBFDF91CF9149
S1130ED01F910F91FF90EF90DF90CF90BF90AF9054
S1130EE09F908F907F906F905F904F903F902F9046
S1130EF00895683280F4813019F0823039F0089511
S1130F00862F8F7080580E94C9050895862F8F7090
S1130F1080540E94C90508950E940F01FFCF5058C4
S1130F20BB27AA270E94A7070C943D090E942F09FA
S1130F3038F00E94360920F039F49F3F19F426F462
S1130F400C941C090EF4E095E7FB0C941609E92FA8
S1130F500E944E0958F3BA1762077307840795076E
S1130F6020F079F4A6F50C9470090EF4E0950B2E9C
S1130F70BA2FA02D0B01B90190010C01CA01A001E7
S1130F801124FF27591B99F0593F50F4503E68F142
S1130F901A16F040A22F232F342F4427585FF3CF83
S1130FA0469537952795A795F0405395C9F77EF454
S1130FB01F16BA0B620B730B840BBAF09150A1F09D
S1130FC0FF0FBB1F661F771F881FC2F70EC0BA0F23
S1130FD0621F731F841F48F4879577956795B795AB
S1130FE0F7959E3F08F0B0CF9395880F08F09927A6
S1130FF0EE0F9795879508950E9410080C943D096B
S11310000E94360958F00E942F0940F029F45F3FEE
S113101029F00C94160951110C9471090C941C09B3
S11310200E944E0968F39923B1F3552391F3951B5C
S1131030550BBB27AA2762177307840738F09F5FF5
S11310405F4F220F331F441FAA1FA9F335D00E2E62
S11310503AF0E0E832D091505040E695001CCAF7CF
S11310602BD0FE2F29D0660F771F881FBB1F261792
S113107037074807AB07B0E809F0BB0B802DBF0169
S1131080FF2793585F4F3AF09E3F510578F00C9438
S113109016090C9471095F3FE4F3983ED4F38695E6
S11310A077956795B795F7959F5FC9F7880F911D59
S11310B09695879597F90895E1E0660F771F881F45
S11310C0BB1F621773078407BA0720F0621B730BF8
S11310D0840BBA0BEE1F88F7E0950895BEE304D0A5
S11310E008F490E80895BFE322273327A9010E945A
S11310F0560960F19F5748F1B91740F1BFE3B91B96
S11311009927B8503AF4660F771F881F991FB39533
S1131110D2F316C0B8504AF0232F342F452F562F40
S1131120672F782F8827B850BAF7B85F49F08695AB
S1131130779567955795479537952795BA95B9F754
S113114016F40E941F0988940895889460E070E062
S1131150CB0108950E94560988F09F5798F0B92F43
S11311609927B751B0F0E1F0660F771F881F991FD8
S11311701AF0BA95C9F714C0B13091F00E94700901
S1131180B1E008950C947009672F782F8827B85F11
S113119039F0B93FCCF3869577956795B395D9F730
S11311A03EF490958095709561957F4F8F4F9F4F3A
S11311B00895E89409C097FB3EF490958095709546
S11311C061957F4F8F4F9F4F9923A9F0F92F96E98F
S11311D0BB279395F695879577956795B795F11104
S11311E0F8CFFAF4BB0F11F460FF1BC06F5F7F4FA1
S11311F08F4F9F4F16C0882311F096E911C07723B3
S113120021F09EE8872F762F05C0662371F096E8BB
S1131210862F70E060E02AF09A95660F771F881F8A
S1131220DAF7880F9695879597F9089597F99F6748
S113123080E870E060E008959FEF80EC0895909559
S113124080957095609550954095309521953F4FC8
S11312504F4F5F4F6F4F7F4F8F4F9F4F0895002425
S11312600A941616170618060906089500240A9407
S113127012161306140605060895092E0394000C8D
S113128011F4882352F0BB0F40F4BF2B11F460FF1C
S113129004C06F5F7F4F8F4F9F4F089557FD905845
S11312A0440F551F59F05F3F71F04795880F97FB26
S11312B0991F61F09F3F79F08795089512161306E0
S11312C01406551FF2CF4695F1DF08C0161617060F
S11312D01806991FF1CF8695710561050894089544
S11312E0E894BB2766277727CB0197F908950E94D6
S11312F08A090C943D090E942F0938F00E9436098E
S113130020F0952311F00C9416090C941C09112457
S11313100C9471090E944E0970F3959FC1F3950FC7
S113132050E0551F629FF001729FBB27F00DB11D65
S1131330639FAA27F00DB11DAA1F649F6627B00DF5
S1131340A11D661F829F2227B00DA11D621F739FDE
S1131350B00DA11D621F839FA00D611D221F749FEC
S11313603327A00D611D231F849F600D211D822F33
S1131370762F6A2F11249F5750409AF0F1F088235A
S11313804AF0EE0FFF1FBB1F661F771F881F915087
S11313905040A9F79E3F510580F00C9416090C9417
S11313A071095F3FE4F3983ED4F38695779567958A
S11313B0B795F795E7959F5FC1F7FE2B880F911DB1
S11313C09695879597F90895689401C0E8948F924B
S11313D09F92CF93DF930E94F209DF91CF919F9068
S11313E08F90089588249924F401E401B0E49F9334
S11313F0AA279A158B049C04ED05FE05CF05D0079A
S1131400A10798F4AD2FDC2FCF2FFE2FE92D982CB8
S1131410892E982F872F762F652F542F432F322F05
S11314202227B85031F7BF9127C01B2EBF91BB278D
S1131430220F331F441F551F661F771F881F991FD4
S1131440881C991CEE1FFF1FCC1FDD1FAA1FBB1F8A
S11314508A149B04EC05FD05CE05DF05A007B10742
S113146048F08A189B08EC09FD09CE09DF09A00B96
S1131470B10B21601A94E1F62EF49401AF01BE0180
S1131480CD01000C08950F93083090F0982F872F0A
S1131490762F652F542F432F322F22270850F4CF55
S11314A0220F331F441F551F661F771F881F991F64
S11314B00A95B2F70F9108952A0D3B1D4C1D5D1D31
S11314C06E1D7F1D801F911F08950024A7FD0094A9
S11314D02A17300540055005600570058005900504
S10914E00895F894FFCF0B
S11314E6313233343738392F3435362A3132332DC5
S11314F643303D2B413D00423D00433D00443D0009
S113150657656C636F6D6520746F200020566F7489
S1131516696E672053797374656D2000456E746532
S1131526722050494E3A00436F72726563742050BC
S1131536494E004E6F20766F746573207965742169
S113154600250057726F6E672050494E00796F75FB
S11315562068617665200020747269657300506C9A
S11315666561736520776169742000207365636F14
S10715766E64730028
S9030000FC
