:100000000C942A000C9447000C9447000C94470071
:100010000C9447000C9447000C9447000C94470044
:100020000C9447000C9447000C9447000C94470034
:100030000C9447000C9447000C9447000C94470024
:100040000C9447000C9447000C9447000C94470014
:100050000C94470011241FBECFE5D8E0DEBFCDBF12
:1000600011E0A0E6B0E0E2E4FDE002C005900D92F0
:10007000AE30B107D9F721E0AEE0B1E001C01D928A
:10008000A631B207E1F70E940F060C949F060C946C
:1000900000000E94A7040E948F0364E081E00E9498
:1000A000030665E081E00E9403060895DC0190E00C
:1000B0000DC0292F30E0FD01E20FF31F4081FB014D
:1000C000E20FF31F2081421305C09F5F943088F335
:1000D00081E0089580E00895CF93DF93D0E021C0C0
:1000E0000E94E003C82F8F3FE1F00E9465048FE07B
:1000F00097E20197F1F700C0000064E06D0F82E025
:100100000E94F0058AE20E946504ED2FF0E0EE5EA9
:10011000FE4FC0838FEC97E00197F1F700C000001D
:10012000DF5FD430E9F6DF91CF910895CF93DF936D
:10013000D0E021C00E94E003C82F8F3FE1F00E9471
:1001400065048FE097E20197F1F700C0000064E0DA
:100150006D0F82E00E94F0058AE20E946504ED2F97
:10016000F0E0E25FFE4FC0838FEC97E00197F1F77C
:1001700000C00000DF5FD430E9F6DF91CF91089531
:10018000CF930E94490080E790E00E948A0462E0D9
:1001900082E00E94F0058CE790E00E948A042FEF35
:1001A00080E792E0215080409040E1F700C00000DD
:1001B0000E949D0462E081E00E94F0058CE890E0DE
:1001C0000E948A0464E082E00E94F0050E946C00B4
:1001D000C0E009C08C2F90E0FC01EE5EFE4F608114
:1001E0000E944503CF5FC430A8F30E949D0461E0E4
:1001F00081E00E94F00589E990E00E948A042FE7DF
:1002000088E391E0215080409040E1F700C0000079
:100210000E949D0461E081E00E94F005C3E00E941D
:100220009D0488EA90E00E948A0464E082E00E94D3
:10023000F0050E9496000E949D046EE071E082E14C
:1002400091E00E9456008823A9F060E081E00E94BE
:10025000F00587EB90E00E948A0462E082E00E9451
:10026000F00588EC90E00E948A0465E081E00E943D
:1002700007065EC0C15061E081E00E94F00587ED95
:1002800090E00E948A0460E082E00E94F00586EE21
:1002900090E00E948A042C2F30E040E050E060E0C3
:1002A00070E080E090E00E94E10480EF90E00E9426
:1002B0008A0464E081E00E9407062FEF80E792E065
:1002C000215080409040E1F700C000000E949D0452
:1002D00064E081E00E940B06C111A1CF25C061E05E
:1002E00081E00E94F00587EF90E00E948A0462E0BE
:1002F00082E00E94F0052C2F30E040E050E060E00A
:1003000070E080E090E00E94E10484E091E00E94CF
:100310008A042FE788E391E0215080409040E1F784
:1003200000C00000C15001C0C9E0C111D8CF76CFD4
:10033000CF910895843008F07BC0683008F07AC00F
:100340004130C1F5813091F028F08230D9F083300E
:1003500029F172C02AB381E090E002C0880F991F92
:100360006A95E2F7822B8ABB81E0089527B381E08A
:1003700090E002C0880F991F6A95E2F7822B87BB35
:1003800081E0089524B381E090E002C0880F991FB6
:100390006A95E2F7822B84BB81E0089521B381E066
:1003A00090E002C0880F991F6A95E2F7822B81BB0B
:1003B00081E00895411142C0813099F028F08230E7
:1003C000E9F0833041F13CC02AB381E090E002C003
:1003D000880F991F6A95E2F7809582238ABB81E096
:1003E000089527B381E090E002C0880F991F6A95B5
:1003F000E2F78095822387BB81E0089524B381E0F2
:1004000090E002C0880F991F6A95E2F780958223D9
:1004100084BB81E0089521B381E090E002C0880FA1
:10042000991F6A95E2F78095822381BB81E0089548
:1004300080E0089580E0089581E0089580E00895C7
:1004400081E00895843008F07BC0683008F07AC0FD
:100450004130C1F5813091F028F08230D9F08330FD
:1004600029F172C02BB381E090E002C0880F991F80
:100470006A95E2F7822B8BBB81E0089528B381E077
:1004800090E002C0880F991F6A95E2F7822B88BB23
:1004900081E0089525B381E090E002C0880F991FA4
:1004A0006A95E2F7822B85BB81E0089522B381E053
:1004B00090E002C0880F991F6A95E2F7822B82BBF9
:1004C00081E00895411142C0813099F028F08230D6
:1004D000E9F0833041F13CC02BB381E090E002C0F1
:1004E000880F991F6A95E2F7809582238BBB81E084
:1004F000089528B381E090E002C0880F991F6A95A3
:10050000E2F78095822388BB81E0089525B381E0DE
:1005100090E002C0880F991F6A95E2F780958223C8
:1005200085BB81E0089522B381E090E002C0880F8E
:10053000991F6A95E2F78095822382BB81E0089536
:1005400080E0089580E0089581E0089580E00895B6
:1005500081E008958430E8F56830E8F541155105EB
:10056000E1F1813091F028F08230D9F0833029F127
:1005700036C089B390E002C0959587956A95E2F7F9
:100580008170FA01808381E0089586B390E002C013
:10059000959587956A95E2F78170FA01808381E0ED
:1005A000089583B390E002C0959587956A95E2F728
:1005B0008170FA01808381E0089580B390E002C0E9
:1005C000959587956A95E2F78170FA01808381E0BD
:1005D000089580E0089580E0089580E0089581E026
:1005E0000895843080F56130C1F4813051F028F0F5
:1005F000823059F0833069F028C08FEF8ABB81E0E8
:1006000008958FEF87BB81E008958FEF84BB81E071
:1006100008958FEF81BB81E00895611118C081308A
:1006200049F028F0823049F0833051F012C01ABAF4
:1006300081E0089517BA81E0089514BA81E0089521
:1006400011BA81E0089580E0089581E0089580E086
:10065000089581E008958430A0F4813049F028F0B5
:10066000823049F0833051F00EC06BBB81E00895B9
:1006700068BB81E0089565BB81E0089562BB81E0BD
:10068000089580E0089580E008951F93CF93DF934D
:10069000EC01162F0E947C030E948C03883009F520
:1006A000CE0188279770880F892F881F990B919505
:1006B000806A0E9485030E948C038831A1F48C2FEC
:1006C0000E9485030E948C03883279F4812F0E9456
:1006D00085030E948C03883251F40E94820381E0DA
:1006E00007C080E005C080E003C080E001C080E07A
:1006F000DF91CF911F91089584EA86BF06B607FE69
:10070000FDCF089584E986BF089583B984E886BF44
:1007100006B607FEFDCF089581B1887F089540E0B9
:1007200060E083E00E949A0140E061E083E00E9483
:100730009A0140E062E083E00E949A0140E063E0B9
:1007400083E00E949A0141E060E083E00E9422027F
:1007500041E061E083E00E94220241E062E083E048
:100760000E94220241E063E083E00E94220241E015
:1007700064E083E00E949A0141E065E083E00E942A
:100780009A0141E066E083E00E949A0141E067E05F
:1007900083E00E949A0141E064E083E00E9422022B
:1007A00041E065E083E00E94220241E066E083E0F0
:1007B0000E94220241E067E083E00E942202089545
:1007C000FF920F931F93CF93DF931F92CDB7DEB7A6
:1007D00004E0FF24FA9449C040E0602F83E00E94C7
:1007E000220210E037C0AE014F5F5F4F612F83E000
:1007F0000E94AA02898181112CC08FE19EE4019799
:10080000F1F700C00000AE014F5F5F4F612F83E042
:100810000E94AA02898181111CC0812F90E0202FA3
:1008200030E024503109880F991F880F991F805A92
:100830009F4FFC01E20FF31FF08007C0AE014F5F36
:100840005F4F612F83E00E94AA0289818823B1F360
:1008500003C01F5F143038F241E0602F83E00E9434
:1008600022029FEFF91204C00F5F083008F4B4CFE2
:100870008F2D0F90DF91CF911F910F91FF900895D1
:10088000682F80E00E942B0340E060E081E00E943E
:10089000220240E061E081E00E94220241E062E049
:1008A00081E00E9422028FEC97E00197F1F700C0EF
:1008B000000040E062E081E00E9422028FEC97E0BD
:1008C0000197F1F700C000000895682F80E00E94B2
:1008D0002B0341E060E081E00E94220240E061E001
:1008E00081E00E94220241E062E081E00E94220257
:1008F0008FEC97E00197F1F700C0000040E062E064
:1009000081E00E9422028FEC97E00197F1F700C08E
:10091000000008950F931F93CF938C01C0E003C094
:100920000E946504CF5FF801EC0FF11D80818111F9
:10093000F7CFCF911F910F91089581E00E9440045D
:100940008FE19EE40197F1F700C0000008952FE7C2
:1009500088E391E0215080409040E1F700C0000022
:1009600061E080E00E94F10241E060E081E00E94ED
:100970009A0141E061E081E00E949A0141E062E079
:1009800081E00E949A0188E30E9440048FEC97E086
:100990000197F1F700C000008CE00E9440048FEC4A
:1009A00097E00197F1F700C000000E949D0486E0E7
:1009B0000E9440048FEC97E00197F1F700C000001F
:1009C00008952F923F924F925F926F927F928F92F3
:1009D0009F92AF92BF92CF92DF92EF92FF920F93CE
:1009E0001F93CF93DF93CDB7DEB728970FB6F89458
:1009F000DEBF0FBECDBF29833A834B835C836D83FB
:100A00007E83382E292EA0E00E94930609F081C033
:100A100080E30E946504CBC02F813885492D582D75
:100A2000672D762D852D942D01E00E947106822E72
:100A3000932E48875F83B62FA72FF82FE92F02E068
:100A40000E947106A22EB32EC42ED52EE62EF72EAE
:100A5000082F192F282D392D48855F816B2F7A2F6C
:100A60008F2F9E2F0E948A0628873F83942E852EE3
:100A7000762E672E582E492E0F2EFAE0AF2EF02D2F
:100A8000B12CC12CD12CE12CF12C00E010E02981FB
:100A90003A814B815C816D817E81832D922D0E94F4
:100AA0001206A22EB32EC42ED52EE62EF72E082F18
:100AB000192F28853F81492D582D672D762D852D9D
:100AC000942D0E948A062F833887942E852E762EA9
:100AD000672E582E492E0F2EFAE0AF2EF02DB12C96
:100AE000C12CD12CE12CF12C00E010E029813A81BD
:100AF0004B815C816D817E81832D922D0E94140635
:100B000029833A834B835C836D837E83382E292E21
:100B100009C081E01886912C812C712C612C512CFC
:100B2000412C8F8329813A814B815C816D817E814B
:100B3000832D922DA0E00E94930609F06DCF2BC06B
:100B40000F2EFAE0AF2EF02DB12CC12CD12CE12CC0
:100B5000F12C00E010E02F813885492D582D672DAC
:100B6000762D852D942D0E94120680E3820F0E941F
:100B700065042F813885492D582D672D762D852DBB
:100B8000942D0E9414062F833887942E852E762E5E
:100B9000672E582E492E2F813885492D582D672DC7
:100BA000762D852D942DA1E00E94930649F6289676
:100BB0000FB6F894DEBF0FBECDBFDF91CF911F916E
:100BC0000F91FF90EF90DF90CF90BF90AF909F90EC
:100BD0008F907F906F905F904F903F902F900895EF
:100BE000683280F4813019F0823039F00895862F10
:100BF0008F7080580E9440040895862F8F70805413
:100C00000E944004089541E00E949A01089541E045
:100C10000E942202089540E00E94220208950E944C
:100C2000C000FFCF689401C0E8948F929F92CF9349
:100C3000DF930E942006DF91CF919F908F900895BF
:100C400088249924F401E401B0E49F93AA279A151B
:100C50008B049C04ED05FE05CF05D007A10798F491
:100C6000AD2FDC2FCF2FFE2FE92D982C892E982F1A
:100C7000872F762F652F542F432F322F2227B850DE
:100C800031F7BF9127C01B2EBF91BB27220F331F07
:100C9000441F551F661F771F881F991F881C991CAA
:100CA000EE1FFF1FCC1FDD1FAA1FBB1F8A149B0452
:100CB000EC05FD05CE05DF05A007B10748F08A1851
:100CC0009B08EC09FD09CE09DF09A00BB10B2160DF
:100CD0001A94E1F62EF49401AF01BE01CD01000C8F
:100CE00008950F93083090F0982F872F762F652F57
:100CF000542F432F322F22270850F4CF220F331FB7
:100D0000441F551F661F771F881F991F0A95B2F74A
:100D10000F9108952A0D3B1D4C1D5D1D6E1D7F1DFD
:100D2000801F911F08950024A7FD00942A17300505
:100D30004005500560057005800590050895F894FC
:020D4000FFCFE3
:100D42003738392F3435362A3132332D43303D2B63
:100D520057656C636F6D6520746F2000204C6F6364
:100D62006B65722053797374656D2000536574202E
:100D720050617373776F72640050617373776F722F
:100D82006420536176656400456E7465722050611B
:100D92007373776F726400436F727265637420506D
:100DA200617373776F7264004C6F636B6572206955
:100DB20073206F70656E0057726F6E67205061739B
:100DC20073776F726400796F7520686176652000B1
:100DD20020747269657300506C6561736520776178
:0E0DE20069742000207365636F6E64730000F7
:00000001FF
